:100000000C942A000C947D030C943C000C943C004E
:100010000C943C000C943C000C943C000C943C0070
:100020000C943C000C943C000C943C000C94F703A2
:100030000C943C000C943C000C943C000C943C0050
:100040000C943C000C943C000C943C000C943C0040
:100050000C943C0011241FBECFE5D8E0DEBFCDBF1D
:1000600020E0A0E6B0E001C01D92A336B207E1F7A0
:100070000E941B020C9400060C94000062E084E0D5
:100080000E9492010E94990161E080E00E948C032D
:1000900083ED90E30197F1F700C0000041E065E0D7
:1000A00084E00E942002D5E010E0C1E073C0C130BE
:1000B000B1F4111114C0DD2351F060E081E00E9421
:1000C000A30188EE93E00E940604D15063C060E073
:1000D00081E00E94B201D5E011E0C0E05BC0C11137
:1000E00016C01130A1F4DD2351F061E081E00E94DF
:1000F000A30161E081E00E94C101D1504BC061E0E9
:1001000081E00E94B201D5E012E0C1E043C0C130FD
:10011000B1F41230A1F4DD2351F062E081E00E94DD
:10012000A30188EE93E00E940604D15033C062E040
:1001300081E00E94B201D5E011E0C2E02BC0C230E4
:10014000B1F41130A1F4DD2351F061E081E00E94AF
:10015000A30161E081E00E94C101D1501BC061E0B8
:1001600081E00E94B201D5E010E0C1E013C0DD23C0
:1001700051F060E081E00E94A30188EE93E00E94CC
:100180000604D15007C060E081E00E94B201D5E0D2
:1001900011E0C0E062E084E00E949601882309F447
:1001A00086CFB8C0C13021F5111122C084E690E09D
:1001B0000E94060462E084E00E94F002811103C004
:1001C0000E94F40370CF60E081E00E94A30167E029
:1001D00081E00E94A30188E893E10E94060460E0A8
:1001E00081E00E94B20167E081E00E94B20180C01C
:1001F000C11126C0113021F580E00E94D60384E6AB
:1002000090E00E94060462E084E00E94F002811106
:1002100006C00E94F40380E00E94C40344CF26E09D
:1002200041E061E081E00E94E20161E081E00E9442
:10023000B20166E081E00E94B20112E0C1E06AC052
:10024000C13089F5123079F541E065E084E00E9423
:10025000900280E00E94D60384E690E00E940604AB
:1002600062E084E00E94F002811106C00E94F40363
:1002700080E00E94C40317CF62E081E00E94A301E6
:1002800065E081E00E94A30188E893E10E940604F2
:1002900062E081E00E94B20165E081E00E94B2016B
:1002A00011E0C2E037C0C23019F5113009F580E025
:1002B0000E94D60384E690E00E94060462E084E097
:1002C0000E94F002811103C00E94F403ECCE26E0EC
:1002D00041E061E081E00E94E20161E081E00E9492
:1002E000B20166E081E00E94B20110E0C1E012C0FC
:1002F0000E94F40380E00E94C40365E081E00E9454
:10030000B20166E081E00E94B20167E081E00E94F4
:10031000B201C9CE62E084E00E949601813009F406
:1003200041CFC1CE40E00E94200208950E94E80320
:10033000089561E081E00E94560341E067E084E0B7
:100340000E9420020895CF93DF93C82FD62F41E05B
:100350000E94200241E06D2F8C2F0E949002DF91BD
:10036000CF910895CF93DF93C82FD62F41E00E94FD
:10037000200240E06D2F8C2F0E949002DF91CF91E0
:1003800008951F93CF93DF93182FD62FC2E014C088
:10039000C0FD09C06D2F812F0E94A30184EF91E061
:1003A0000E94060408C06D2F812F0E94B20184EFC5
:1003B00091E00E940604C150C111EACFDF91CF91B4
:1003C0001F910895FF920F931F93CF93DF93F82E01
:1003D000062F142FD22F41E066E081E00E94200218
:1003E00041E061E081E00E942002CAE01CC0C0FD43
:1003F0000DC0602F8F2D0E94A3016D2F812F0E94B1
:10040000A30184EF91E00E9406040CC0602F8F2DA1
:100410000E94B2016D2F812F0E94B20184EF91E002
:100420000E940604C150C111E2CFDF91CF911F910C
:100430000F91FF9008950E943E0080E090E00895A3
:10044000823019F118F4813039F008958330B1F118
:10045000843009F44CC00895413059F42AB381E046
:1004600090E002C0880F991F6A95E2F7822B8ABB41
:1004700008952AB381E090E002C0880F991F6A9521
:10048000E2F7809582238ABB0895413059F427B35F
:1004900081E090E002C0880F991F6A95E2F7822BF5
:1004A00087BB089527B381E090E002C0880F991FB1
:1004B0006A95E2F78095822387BB0895413059F40D
:1004C00024B381E090E002C0880F991F6A95E2F79B
:1004D000822B84BB089524B381E090E002C0880F92
:1004E000991F6A95E2F78095822384BB0895413075
:1004F00059F421B381E090E002C0880F991F6A95FA
:10050000E2F7822B81BB089521B381E090E002C025
:10051000880F991F6A95E2F78095822381BB089521
:100520008230F9F018F4813039F00895833071F198
:10053000843009F440C008952AB381E090E002C0FD
:10054000880F991F6A95E2F7282B2ABB442321F0D4
:100550009BB3892B8BBB08959BB3809589238BBB61
:10056000089527B381E090E002C0880F991F6A9533
:10057000E2F7282B27BB442321F098B3892B88BBB3
:10058000089598B38095892388BB089524B381E0AA
:1005900090E002C0880F991F6A95E2F7282B24BBD0
:1005A000442321F095B3892B85BB089595B380959D
:1005B000892385BB089521B381E090E002C0880FB4
:1005C000991F6A95E2F7282B21BB442321F092B3AF
:1005D000892B82BB089592B38095892382BB0895AD
:1005E000823001F118F4813039F05EC0833081F13E
:1005F000843009F443C058C02AB381E090E0062E4D
:1006000002C0880F991F0A94E2F7982F90959223C1
:100610009ABB99B3892390E002C0959587956A9516
:10062000E2F7089527B381E090E0062E02C0880F1C
:10063000991F0A94E2F7982F9095922397BB96B34F
:10064000892390E002C0959587956A95E2F7089511
:1006500024B381E090E0062E02C0880F991F0A940F
:10066000E2F7982F9095922394BB93B3892390E05F
:1006700002C0959587956A95E2F7089521B381E0C8
:1006800090E0062E02C0880F991F0A94E2F7982F77
:100690009095922391BB90B3892390E002C09595E9
:1006A00087956A95E2F708958FEF0895823081F07B
:1006B00018F4813031F00895833089F08430B1F03E
:1006C0000895613011F48FEF01C080E08ABB089576
:1006D000613011F48FEF01C080E087BB0895613075
:1006E00011F48FEF01C080E084BB0895613011F4F4
:1006F0008FEF01C080E081BB08951F920F920FB66B
:100700000F9211248F9381E0809361008F910F905D
:100710000FBE0F901F901895CF93C62F813091F088
:1007200018F0823009F12BC040E062E084E00E94C2
:100730002002C13019F085B7826085BF8BB7806415
:100740008BBF1DC040E063E084E00E942002C13006
:1007500021F485B7846085BF03C085B7886085BFF5
:100760008BB780688BBF0BC040E062E082E00E94E4
:10077000200284B7806484BF8BB780628BBF8FB741
:1007800080688FBFCF910895813041F018F082309A
:1007900049F008958BB780648BBF08958BB7806450
:1007A0008BBF08958BB780648BBF0895813041F073
:1007B00018F0823049F008958BB78F7B8BBF089576
:1007C0008BB78F7B8BBF08958BB78F7B8BBF0895C3
:1007D00080916100882329F081E08093600010926D
:1007E00061008091600008951092600008951F924A
:1007F0000F920FB60F9211248F9381E080936200C5
:100800008F910F900FBE0F901F9018958330910518
:1008100070F522E023BF48EE53E0849F9001859F4E
:10082000300D949F300D1124C901969587959695AA
:100830008795969587958CBF8FB780688FBF89B74E
:10084000826089BF88B7827088BF8823D9F388B750
:100850008D7F88BF89B78D7F89BF83B78E7F83BF28
:1008600083B78D7F83BF83B78B7F83BF08959C0140
:10087000235031092E30310588F523E023BF48EE9F
:1008800053E0849F9001859F300D949F300D11247B
:10089000C9010024880F991F001C880F991F001C94
:1008A000892F902D8CBF8FB780688FBF89B78260EA
:1008B00089BF88B7827088BF8823D9F388B78D7FB6
:1008C00088BF89B78D7F89BF83B78E7F83BF83B78A
:1008D0008D7F83BF83B78B7F83BF08959C01215198
:1008E00031092133310538F524E023BF48EE53E0C8
:1008F000849F9001859F300D949F300D11243CBF43
:100900008FB780688FBF89B7826089BF88B78270D0
:1009100088BF8823D9F388B78D7F88BF89B78D7F3B
:1009200089BF83B78E7F83BF83B78D7F83BF83B734
:100930008B7F83BF0895BC0183B7816083BF83B77A
:10094000846083BF80E090E00E94050520E030E0F5
:100950004AE754E40E94930520E030E040E85AE37F
:100960000E94930520E030E040E85BE30E9493059D
:100970000E94D6048FB780688FBF89B7816089BF16
:1009800008C0809162008823E1F3109262006150F8
:10099000710961157105A9F783B78E7F83BF83B78E
:1009A0008D7F83BF83B78B7F83BF08950E947205BD
:1009B00088F09F5798F0B92F9927B751B0F0E1F020
:1009C000660F771F881F991F1AF0BA95C9F714C0D0
:1009D000B13091F00E948C05B1E008950C948C0523
:1009E000672F782F8827B85F39F0B93FCCF3869509
:1009F00077956795B395D9F73EF490958095709566
:100A000061957F4F8F4F9F4F0895E89409C097FBE2
:100A10003EF490958095709561957F4F8F4F9F4FD5
:100A20009923A9F0F92F96E9BB279395F695879519
:100A300077956795B795F111F8CFFAF4BB0F11F4DC
:100A400060FF1BC06F5F7F4F8F4F9F4F16C0882383
:100A500011F096E911C0772321F09EE8872F762FB9
:100A600005C0662371F096E8862F70E060E02AF0FA
:100A70009A95660F771F881FDAF7880F96958795E6
:100A800097F9089597F99F6780E870E060E008950E
:100A90009FEF80EC089500240A9416161706180696
:100AA0000906089500240A94121613061406050672
:100AB0000895092E0394000C11F4882352F0BB0F03
:100AC00040F4BF2B11F460FF04C06F5F7F4F8F4F66
:100AD0009F4F089557FD9058440F551F59F05F3FA1
:100AE00071F04795880F97FB991F61F09F3F79F050
:100AF00087950895121613061406551FF2CF4695D2
:100B0000F1DF08C0161617061806991FF1CF869553
:100B10007105610508940895E894BB276627772737
:100B2000CB0197F908950E94A6050C9459050E94DF
:100B30004B0538F00E94520520F0952311F00C94DB
:100B400042050C94480511240C948D050E946A05F9
:100B500070F3959FC1F3950F50E0551F629FF00110
:100B6000729FBB27F00DB11D639FAA27F00DB11D29
:100B7000AA1F649F6627B00DA11D661F829F2227B2
:100B8000B00DA11D621F739FB00DA11D621F839F39
:100B9000A00D611D221F749F3327A00D611D231F0F
:100BA000849F600D211D822F762F6A2F11249F575D
:100BB00050409AF0F1F088234AF0EE0FFF1FBB1F60
:100BC000661F771F881F91505040A9F79E3F51051F
:100BD00080F00C9442050C948D055F3FE4F3983E41
:100BE000D4F3869577956795B795F795E7959F5FC9
:100BF000C1F7FE2B880F911D9695879597F908955B
:040C0000F894FFCF96
:00000001FF
